{
  "_format": "hh-sol-artifact-1",
  "contractName": "myNFT",
  "sourceName": "contracts/myNFT.sol",
  "abi": [
    {
      "inputs": [],
      "stateMutability": "nonpayable",
      "type": "constructor"
    },
    {
      "anonymous": false,
      "inputs": [
        {
          "indexed": true,
          "internalType": "address",
          "name": "owner",
          "type": "address"
        },
        {
          "indexed": true,
          "internalType": "address",
          "name": "approved",
          "type": "address"
        },
        {
          "indexed": true,
          "internalType": "uint256",
          "name": "tokenId",
          "type": "uint256"
        }
      ],
      "name": "Approval",
      "type": "event"
    },
    {
      "anonymous": false,
      "inputs": [
        {
          "indexed": true,
          "internalType": "address",
          "name": "owner",
          "type": "address"
        },
        {
          "indexed": true,
          "internalType": "address",
          "name": "operator",
          "type": "address"
        },
        {
          "indexed": false,
          "internalType": "bool",
          "name": "approved",
          "type": "bool"
        }
      ],
      "name": "ApprovalForAll",
      "type": "event"
    },
    {
      "anonymous": false,
      "inputs": [
        {
          "indexed": true,
          "internalType": "address",
          "name": "from",
          "type": "address"
        },
        {
          "indexed": true,
          "internalType": "address",
          "name": "to",
          "type": "address"
        },
        {
          "indexed": true,
          "internalType": "uint256",
          "name": "tokenId",
          "type": "uint256"
        }
      ],
      "name": "Transfer",
      "type": "event"
    },
    {
      "inputs": [
        {
          "internalType": "address",
          "name": "to",
          "type": "address"
        },
        {
          "internalType": "uint256",
          "name": "tokenId",
          "type": "uint256"
        }
      ],
      "name": "approve",
      "outputs": [],
      "stateMutability": "nonpayable",
      "type": "function"
    },
    {
      "inputs": [
        {
          "internalType": "address",
          "name": "owner",
          "type": "address"
        }
      ],
      "name": "balanceOf",
      "outputs": [
        {
          "internalType": "uint256",
          "name": "",
          "type": "uint256"
        }
      ],
      "stateMutability": "view",
      "type": "function"
    },
    {
      "inputs": [
        {
          "internalType": "uint256",
          "name": "tokenId",
          "type": "uint256"
        }
      ],
      "name": "getApproved",
      "outputs": [
        {
          "internalType": "address",
          "name": "",
          "type": "address"
        }
      ],
      "stateMutability": "view",
      "type": "function"
    },
    {
      "inputs": [
        {
          "internalType": "address",
          "name": "owner",
          "type": "address"
        },
        {
          "internalType": "address",
          "name": "operator",
          "type": "address"
        }
      ],
      "name": "isApprovedForAll",
      "outputs": [
        {
          "internalType": "bool",
          "name": "",
          "type": "bool"
        }
      ],
      "stateMutability": "view",
      "type": "function"
    },
    {
      "inputs": [],
      "name": "makeNFT",
      "outputs": [],
      "stateMutability": "nonpayable",
      "type": "function"
    },
    {
      "inputs": [],
      "name": "name",
      "outputs": [
        {
          "internalType": "string",
          "name": "",
          "type": "string"
        }
      ],
      "stateMutability": "view",
      "type": "function"
    },
    {
      "inputs": [
        {
          "internalType": "uint256",
          "name": "tokenId",
          "type": "uint256"
        }
      ],
      "name": "ownerOf",
      "outputs": [
        {
          "internalType": "address",
          "name": "",
          "type": "address"
        }
      ],
      "stateMutability": "view",
      "type": "function"
    },
    {
      "inputs": [
        {
          "internalType": "uint256",
          "name": "tokenId",
          "type": "uint256"
        }
      ],
      "name": "randomWord",
      "outputs": [
        {
          "internalType": "string",
          "name": "",
          "type": "string"
        }
      ],
      "stateMutability": "view",
      "type": "function"
    },
    {
      "inputs": [
        {
          "internalType": "address",
          "name": "from",
          "type": "address"
        },
        {
          "internalType": "address",
          "name": "to",
          "type": "address"
        },
        {
          "internalType": "uint256",
          "name": "tokenId",
          "type": "uint256"
        }
      ],
      "name": "safeTransferFrom",
      "outputs": [],
      "stateMutability": "nonpayable",
      "type": "function"
    },
    {
      "inputs": [
        {
          "internalType": "address",
          "name": "from",
          "type": "address"
        },
        {
          "internalType": "address",
          "name": "to",
          "type": "address"
        },
        {
          "internalType": "uint256",
          "name": "tokenId",
          "type": "uint256"
        },
        {
          "internalType": "bytes",
          "name": "_data",
          "type": "bytes"
        }
      ],
      "name": "safeTransferFrom",
      "outputs": [],
      "stateMutability": "nonpayable",
      "type": "function"
    },
    {
      "inputs": [
        {
          "internalType": "address",
          "name": "operator",
          "type": "address"
        },
        {
          "internalType": "bool",
          "name": "approved",
          "type": "bool"
        }
      ],
      "name": "setApprovalForAll",
      "outputs": [],
      "stateMutability": "nonpayable",
      "type": "function"
    },
    {
      "inputs": [
        {
          "internalType": "bytes4",
          "name": "interfaceId",
          "type": "bytes4"
        }
      ],
      "name": "supportsInterface",
      "outputs": [
        {
          "internalType": "bool",
          "name": "",
          "type": "bool"
        }
      ],
      "stateMutability": "view",
      "type": "function"
    },
    {
      "inputs": [],
      "name": "symbol",
      "outputs": [
        {
          "internalType": "string",
          "name": "",
          "type": "string"
        }
      ],
      "stateMutability": "view",
      "type": "function"
    },
    {
      "inputs": [
        {
          "internalType": "uint256",
          "name": "tokenId",
          "type": "uint256"
        }
      ],
      "name": "tokenURI",
      "outputs": [
        {
          "internalType": "string",
          "name": "",
          "type": "string"
        }
      ],
      "stateMutability": "view",
      "type": "function"
    },
    {
      "inputs": [
        {
          "internalType": "address",
          "name": "from",
          "type": "address"
        },
        {
          "internalType": "address",
          "name": "to",
          "type": "address"
        },
        {
          "internalType": "uint256",
          "name": "tokenId",
          "type": "uint256"
        }
      ],
      "name": "transferFrom",
      "outputs": [],
      "stateMutability": "nonpayable",
      "type": "function"
    }
  ],
  "bytecode": "0x608060405260405180610160016040528061012f815260200162003c2461012f9139600890805190602001906200003892919062000434565b506040518061012001604052806040518060400160405280600481526020017f546869730000000000000000000000000000000000000000000000000000000081525081526020016040518060400160405280600281526020017f697300000000000000000000000000000000000000000000000000000000000081525081526020016040518060400160405280600181526020017f410000000000000000000000000000000000000000000000000000000000000081525081526020016040518060400160405280600681526020017f52616e646f6d000000000000000000000000000000000000000000000000000081525081526020016040518060400160405280600481526020017f576f72640000000000000000000000000000000000000000000000000000000081525081526020016040518060400160405280600981526020017f53706f6e6765426f62000000000000000000000000000000000000000000000081525081526020016040518060400160405280600b81526020017f53717561726570616e747300000000000000000000000000000000000000000081525081526020016040518060400160405280600781526020017f526562656363610000000000000000000000000000000000000000000000000081525081526020016040518060400160405280600781526020017f4e6574666c697800000000000000000000000000000000000000000000000000815250815250600990600962000268929190620004c5565b503480156200027657600080fd5b506040518060400160405280601181526020017f41727069742773204669727374204e46540000000000000000000000000000008152506040518060400160405280600381526020017f41525000000000000000000000000000000000000000000000000000000000008152508160009080519060200190620002fb92919062000434565b5080600190805190602001906200031492919062000434565b505050620003626040518060400160405280601381526020017f63616c6c696e6720636f6e7374727563746f72000000000000000000000000008152506200036860201b62000e701760201c565b620006e6565b62000408816040516024016200037f9190620005fa565b6040516020818303038152906040527f41304fac000000000000000000000000000000000000000000000000000000007bffffffffffffffffffffffffffffffffffffffffffffffffffffffff19166020820180517bffffffffffffffffffffffffffffffffffffffffffffffffffffffff83818316178352505050506200040b60201b60201c565b50565b60008151905060006a636f6e736f6c652e6c6f679050602083016000808483855afa5050505050565b828054620004429062000670565b90600052602060002090601f016020900481019282620004665760008555620004b2565b82601f106200048157805160ff1916838001178555620004b2565b82800160010185558215620004b2579182015b82811115620004b157825182559160200191906001019062000494565b5b509050620004c191906200052c565b5090565b82805482825590600052602060002090810192821562000519579160200282015b82811115620005185782518290805190602001906200050792919062000434565b5091602001919060010190620004e6565b5b5090506200052891906200054b565b5090565b5b80821115620005475760008160009055506001016200052d565b5090565b5b808211156200056f576000818162000565919062000573565b506001016200054c565b5090565b508054620005819062000670565b6000825580601f10620005955750620005b6565b601f016020900490600052602060002090810190620005b591906200052c565b5b50565b6000620005c6826200061e565b620005d2818562000629565b9350620005e48185602086016200063a565b620005ef81620006d5565b840191505092915050565b60006020820190508181036000830152620006168184620005b9565b905092915050565b600081519050919050565b600082825260208201905092915050565b60005b838110156200065a5780820151818401526020810190506200063d565b838111156200066a576000848401525b50505050565b600060028204905060018216806200068957607f821691505b60208210811415620006a0576200069f620006a6565b5b50919050565b7f4e487b7100000000000000000000000000000000000000000000000000000000600052602260045260246000fd5b6000601f19601f8301169050919050565b61352e80620006f66000396000f3fe608060405234801561001057600080fd5b50600436106100f55760003560e01c806370a0823111610097578063b88d4fde11610066578063b88d4fde14610270578063c87b56dd1461028c578063d64ddd89146102bc578063e985e9c5146102ec576100f5565b806370a08231146101fc57806395d89b411461022c578063a22cb4651461024a578063b036b4bd14610266576100f5565b8063095ea7b3116100d3578063095ea7b31461017857806323b872dd1461019457806342842e0e146101b05780636352211e146101cc576100f5565b806301ffc9a7146100fa57806306fdde031461012a578063081812fc14610148575b600080fd5b610114600480360381019061010f919061223d565b61031c565b6040516101219190612dc9565b60405180910390f35b6101326103fe565b60405161013f9190612de4565b60405180910390f35b610162600480360381019061015d919061228f565b610490565b60405161016f9190612d62565b60405180910390f35b610192600480360381019061018d9190612201565b610515565b005b6101ae60048036038101906101a991906120fb565b61062d565b005b6101ca60048036038101906101c591906120fb565b61068d565b005b6101e660048036038101906101e1919061228f565b6106ad565b6040516101f39190612d62565b60405180910390f35b61021660048036038101906102119190612096565b61075f565b6040516102239190613044565b60405180910390f35b610234610817565b6040516102419190612de4565b60405180910390f35b610264600480360381019061025f91906121c5565b6108a9565b005b61026e6108bf565b005b61028a6004803603810190610285919061214a565b610ae9565b005b6102a660048036038101906102a1919061228f565b610b4b565b6040516102b39190612de4565b60405180910390f35b6102d660048036038101906102d1919061228f565b610c9d565b6040516102e39190612de4565b60405180910390f35b610306600480360381019061030191906120bf565b610ddc565b6040516103139190612dc9565b60405180910390f35b60007f80ac58cd000000000000000000000000000000000000000000000000000000007bffffffffffffffffffffffffffffffffffffffffffffffffffffffff1916827bffffffffffffffffffffffffffffffffffffffffffffffffffffffff191614806103e757507f5b5e139f000000000000000000000000000000000000000000000000000000007bffffffffffffffffffffffffffffffffffffffffffffffffffffffff1916827bffffffffffffffffffffffffffffffffffffffffffffffffffffffff1916145b806103f757506103f682610f09565b5b9050919050565b60606000805461040d906132e3565b80601f0160208091040260200160405190810160405280929190818152602001828054610439906132e3565b80156104865780601f1061045b57610100808354040283529160200191610486565b820191906000526020600020905b81548152906001019060200180831161046957829003601f168201915b5050505050905090565b600061049b82610f73565b6104da576040517f08c379a00000000000000000000000000000000000000000000000000000000081526004016104d190612fa4565b60405180910390fd5b6004600083815260200190815260200160002060009054906101000a900473ffffffffffffffffffffffffffffffffffffffff169050919050565b6000610520826106ad565b90508073ffffffffffffffffffffffffffffffffffffffff168373ffffffffffffffffffffffffffffffffffffffff161415610591576040517f08c379a000000000000000000000000000000000000000000000000000000000815260040161058890613004565b60405180910390fd5b8073ffffffffffffffffffffffffffffffffffffffff166105b0610fdf565b73ffffffffffffffffffffffffffffffffffffffff1614806105df57506105de816105d9610fdf565b610ddc565b5b61061e576040517f08c379a000000000000000000000000000000000000000000000000000000000815260040161061590612ee4565b60405180910390fd5b6106288383610fe7565b505050565b61063e610638610fdf565b826110a0565b61067d576040517f08c379a000000000000000000000000000000000000000000000000000000000815260040161067490613024565b60405180910390fd5b61068883838361117e565b505050565b6106a883838360405180602001604052806000815250610ae9565b505050565b6000806002600084815260200190815260200160002060009054906101000a900473ffffffffffffffffffffffffffffffffffffffff169050600073ffffffffffffffffffffffffffffffffffffffff168173ffffffffffffffffffffffffffffffffffffffff161415610756576040517f08c379a000000000000000000000000000000000000000000000000000000000815260040161074d90612f24565b60405180910390fd5b80915050919050565b60008073ffffffffffffffffffffffffffffffffffffffff168273ffffffffffffffffffffffffffffffffffffffff1614156107d0576040517f08c379a00000000000000000000000000000000000000000000000000000000081526004016107c790612f04565b60405180910390fd5b600360008373ffffffffffffffffffffffffffffffffffffffff1673ffffffffffffffffffffffffffffffffffffffff168152602001908152602001600020549050919050565b606060018054610826906132e3565b80601f0160208091040260200160405190810160405280929190818152602001828054610852906132e3565b801561089f5780601f106108745761010080835404028352916020019161089f565b820191906000526020600020905b81548152906001019060200180831161088257829003601f168201915b5050505050905090565b6108bb6108b4610fdf565b83836113da565b5050565b60006108cb6007611547565b905060006108d882610c9d565b905060006008826040516020016108f0929190612c88565b604051602081830303815290604052905060006109358361091084611555565b604051602001610921929190612cfb565b604051602081830303815290604052611555565b905060008160405160200161094a9190612d40565b60405160208183030381529060405290506109996040518060400160405280600181526020017f0a00000000000000000000000000000000000000000000000000000000000000815250610e70565b6109a281610e70565b6109e06040518060400160405280600181526020017f0a00000000000000000000000000000000000000000000000000000000000000815250610e70565b610a1e6040518060400160405280601581526020017f0a2d2d2d2d2d2d2d2d2d2d2d2d2d2d2d2d2d2d2d2d0000000000000000000000815250610e70565b610a4681604051602001610a329190612cb7565b604051602081830303815290604052610e70565b610a846040518060400160405280600281526020017f0a0a000000000000000000000000000000000000000000000000000000000000815250610e70565b610a8e3386611713565b610a988582611731565b610ad86040518060400160405280601e81526020017f4e46542077697468204944202573206973206d696e74656420746f202573000081525086336117a5565b610ae26007611844565b5050505050565b610afa610af4610fdf565b836110a0565b610b39576040517f08c379a0000000000000000000000000000000000000000000000000000000008152600401610b3090613024565b60405180910390fd5b610b458484848461185a565b50505050565b6060610b5682610f73565b610b95576040517f08c379a0000000000000000000000000000000000000000000000000000000008152600401610b8c90612f84565b60405180910390fd5b6000600660008481526020019081526020016000208054610bb5906132e3565b80601f0160208091040260200160405190810160405280929190818152602001828054610be1906132e3565b8015610c2e5780601f10610c0357610100808354040283529160200191610c2e565b820191906000526020600020905b815481529060010190602001808311610c1157829003601f168201915b505050505090506000610c3f6118b6565b9050600081511415610c55578192505050610c98565b600082511115610c8a578082604051602001610c72929190612c64565b60405160208183030381529060405292505050610c98565b610c93846118cd565b925050505b919050565b60606000610caa83611974565b604051602001610cba9190612cd9565b604051602081830303815290604052604051602001610cd99190612c4d565b6040516020818303038152906040528051906020012060001c905060098054905081610d05919061335e565b905060098181548110610d41577f4e487b7100000000000000000000000000000000000000000000000000000000600052603260045260246000fd5b906000526020600020018054610d56906132e3565b80601f0160208091040260200160405190810160405280929190818152602001828054610d82906132e3565b8015610dcf5780601f10610da457610100808354040283529160200191610dcf565b820191906000526020600020905b815481529060010190602001808311610db257829003601f168201915b5050505050915050919050565b6000600560008473ffffffffffffffffffffffffffffffffffffffff1673ffffffffffffffffffffffffffffffffffffffff16815260200190815260200160002060008373ffffffffffffffffffffffffffffffffffffffff1673ffffffffffffffffffffffffffffffffffffffff16815260200190815260200160002060009054906101000a900460ff16905092915050565b610f0681604051602401610e849190612de4565b6040516020818303038152906040527f41304fac000000000000000000000000000000000000000000000000000000007bffffffffffffffffffffffffffffffffffffffffffffffffffffffff19166020820180517bffffffffffffffffffffffffffffffffffffffffffffffffffffffff8381831617835250505050611b21565b50565b60007f01ffc9a7000000000000000000000000000000000000000000000000000000007bffffffffffffffffffffffffffffffffffffffffffffffffffffffff1916827bffffffffffffffffffffffffffffffffffffffffffffffffffffffff1916149050919050565b60008073ffffffffffffffffffffffffffffffffffffffff166002600084815260200190815260200160002060009054906101000a900473ffffffffffffffffffffffffffffffffffffffff1673ffffffffffffffffffffffffffffffffffffffff1614159050919050565b600033905090565b816004600083815260200190815260200160002060006101000a81548173ffffffffffffffffffffffffffffffffffffffff021916908373ffffffffffffffffffffffffffffffffffffffff160217905550808273ffffffffffffffffffffffffffffffffffffffff1661105a836106ad565b73ffffffffffffffffffffffffffffffffffffffff167f8c5be1e5ebec7d5bd14f71427d1e84f3dd0314c0f7b2291e5b200ac8c7c3b92560405160405180910390a45050565b60006110ab82610f73565b6110ea576040517f08c379a00000000000000000000000000000000000000000000000000000000081526004016110e190612ec4565b60405180910390fd5b60006110f5836106ad565b90508073ffffffffffffffffffffffffffffffffffffffff168473ffffffffffffffffffffffffffffffffffffffff16148061116457508373ffffffffffffffffffffffffffffffffffffffff1661114c84610490565b73ffffffffffffffffffffffffffffffffffffffff16145b8061117557506111748185610ddc565b5b91505092915050565b8273ffffffffffffffffffffffffffffffffffffffff1661119e826106ad565b73ffffffffffffffffffffffffffffffffffffffff16146111f4576040517f08c379a00000000000000000000000000000000000000000000000000000000081526004016111eb90612fc4565b60405180910390fd5b600073ffffffffffffffffffffffffffffffffffffffff168273ffffffffffffffffffffffffffffffffffffffff161415611264576040517f08c379a000000000000000000000000000000000000000000000000000000000815260040161125b90612e84565b60405180910390fd5b61126f838383611b4a565b61127a600082610fe7565b6001600360008573ffffffffffffffffffffffffffffffffffffffff1673ffffffffffffffffffffffffffffffffffffffff16815260200190815260200160002060008282546112ca91906131f9565b925050819055506001600360008473ffffffffffffffffffffffffffffffffffffffff1673ffffffffffffffffffffffffffffffffffffffff16815260200190815260200160002060008282546113219190613118565b92505081905550816002600083815260200190815260200160002060006101000a81548173ffffffffffffffffffffffffffffffffffffffff021916908373ffffffffffffffffffffffffffffffffffffffff160217905550808273ffffffffffffffffffffffffffffffffffffffff168473ffffffffffffffffffffffffffffffffffffffff167fddf252ad1be2c89b69c2b068fc378daa952ba7f163c4a11628f55a4df523b3ef60405160405180910390a4505050565b8173ffffffffffffffffffffffffffffffffffffffff168373ffffffffffffffffffffffffffffffffffffffff161415611449576040517f08c379a000000000000000000000000000000000000000000000000000000000815260040161144090612ea4565b60405180910390fd5b80600560008573ffffffffffffffffffffffffffffffffffffffff1673ffffffffffffffffffffffffffffffffffffffff16815260200190815260200160002060008473ffffffffffffffffffffffffffffffffffffffff1673ffffffffffffffffffffffffffffffffffffffff16815260200190815260200160002060006101000a81548160ff0219169083151502179055508173ffffffffffffffffffffffffffffffffffffffff168373ffffffffffffffffffffffffffffffffffffffff167f17307eab39ab6107e8899845ad3d59bd9653f200f220920489ca2b5937696c318360405161153a9190612dc9565b60405180910390a3505050565b600081600001549050919050565b6060600082519050600081141561157e576040518060200160405280600081525091505061170e565b6000600360028361158f9190613118565b611599919061316e565b60046115a5919061319f565b905060006020826115b69190613118565b67ffffffffffffffff8111156115f5577f4e487b7100000000000000000000000000000000000000000000000000000000600052604160045260246000fd5b6040519080825280601f01601f1916602001820160405280156116275781602001600182028036833780820191505090505b50905060006040518060600160405280604081526020016134b9604091399050600181016020830160005b868110156116cb5760038101905062ffffff818a015116603f8160121c168401518060081b905060ff603f83600c1c1686015116810190508060081b905060ff603f8360061c1686015116810190508060081b905060ff603f831686015116810190508060e01b90508084526004840193505050611652565b5060038606600181146116e557600281146116f557611700565b613d3d60f01b6002830352611700565b603d60f81b60018303525b508484525050819450505050505b919050565b61172d828260405180602001604052806000815250611b4f565b5050565b61173a82610f73565b611779576040517f08c379a000000000000000000000000000000000000000000000000000000000815260040161177090612f44565b60405180910390fd5b806006600084815260200190815260200160002090805190602001906117a0929190611f22565b505050565b61183f8383836040516024016117bd93929190612e06565b6040516020818303038152906040527fe3849f79000000000000000000000000000000000000000000000000000000007bffffffffffffffffffffffffffffffffffffffffffffffffffffffff19166020820180517bffffffffffffffffffffffffffffffffffffffffffffffffffffffff8381831617835250505050611b21565b505050565b6001816000016000828254019250508190555050565b61186584848461117e565b61187184848484611baa565b6118b0576040517f08c379a00000000000000000000000000000000000000000000000000000000081526004016118a790612e44565b60405180910390fd5b50505050565b606060405180602001604052806000815250905090565b60606118d882610f73565b611917576040517f08c379a000000000000000000000000000000000000000000000000000000000815260040161190e90612fe4565b60405180910390fd5b60006119216118b6565b90506000815111611941576040518060200160405280600081525061196c565b8061194b84611974565b60405160200161195c929190612c64565b6040516020818303038152906040525b915050919050565b606060008214156119bc576040518060400160405280600181526020017f30000000000000000000000000000000000000000000000000000000000000008152509050611b1c565b600082905060005b600082146119ee5780806119d790613315565b915050600a826119e7919061316e565b91506119c4565b60008167ffffffffffffffff811115611a30577f4e487b7100000000000000000000000000000000000000000000000000000000600052604160045260246000fd5b6040519080825280601f01601f191660200182016040528015611a625781602001600182028036833780820191505090505b5090505b60008514611b1557600182611a7b91906131f9565b9150600a85611a8a919061335e565b6030611a969190613118565b60f81b818381518110611ad2577f4e487b7100000000000000000000000000000000000000000000000000000000600052603260045260246000fd5b60200101907effffffffffffffffffffffffffffffffffffffffffffffffffffffffffffff1916908160001a905350600a85611b0e919061316e565b9450611a66565b8093505050505b919050565b60008151905060006a636f6e736f6c652e6c6f679050602083016000808483855afa5050505050565b505050565b611b598383611d41565b611b666000848484611baa565b611ba5576040517f08c379a0000000000000000000000000000000000000000000000000000000008152600401611b9c90612e44565b60405180910390fd5b505050565b6000611bcb8473ffffffffffffffffffffffffffffffffffffffff16611f0f565b15611d34578373ffffffffffffffffffffffffffffffffffffffff1663150b7a02611bf4610fdf565b8786866040518563ffffffff1660e01b8152600401611c169493929190612d7d565b602060405180830381600087803b158015611c3057600080fd5b505af1925050508015611c6157506040513d601f19601f82011682018060405250810190611c5e9190612266565b60015b611ce4573d8060008114611c91576040519150601f19603f3d011682016040523d82523d6000602084013e611c96565b606091505b50600081511415611cdc576040517f08c379a0000000000000000000000000000000000000000000000000000000008152600401611cd390612e44565b60405180910390fd5b805181602001fd5b63150b7a0260e01b7bffffffffffffffffffffffffffffffffffffffffffffffffffffffff1916817bffffffffffffffffffffffffffffffffffffffffffffffffffffffff191614915050611d39565b600190505b949350505050565b600073ffffffffffffffffffffffffffffffffffffffff168273ffffffffffffffffffffffffffffffffffffffff161415611db1576040517f08c379a0000000000000000000000000000000000000000000000000000000008152600401611da890612f64565b60405180910390fd5b611dba81610f73565b15611dfa576040517f08c379a0000000000000000000000000000000000000000000000000000000008152600401611df190612e64565b60405180910390fd5b611e0660008383611b4a565b6001600360008473ffffffffffffffffffffffffffffffffffffffff1673ffffffffffffffffffffffffffffffffffffffff1681526020019081526020016000206000828254611e569190613118565b92505081905550816002600083815260200190815260200160002060006101000a81548173ffffffffffffffffffffffffffffffffffffffff021916908373ffffffffffffffffffffffffffffffffffffffff160217905550808273ffffffffffffffffffffffffffffffffffffffff16600073ffffffffffffffffffffffffffffffffffffffff167fddf252ad1be2c89b69c2b068fc378daa952ba7f163c4a11628f55a4df523b3ef60405160405180910390a45050565b600080823b905060008111915050919050565b828054611f2e906132e3565b90600052602060002090601f016020900481019282611f505760008555611f97565b82601f10611f6957805160ff1916838001178555611f97565b82800160010185558215611f97579182015b82811115611f96578251825591602001919060010190611f7b565b5b509050611fa49190611fa8565b5090565b5b80821115611fc1576000816000905550600101611fa9565b5090565b6000611fd8611fd384613090565b61305f565b905082815260208101848484011115611ff057600080fd5b611ffb8482856132a1565b509392505050565b6000813590506120128161345c565b92915050565b60008135905061202781613473565b92915050565b60008135905061203c8161348a565b92915050565b6000815190506120518161348a565b92915050565b600082601f83011261206857600080fd5b8135612078848260208601611fc5565b91505092915050565b600081359050612090816134a1565b92915050565b6000602082840312156120a857600080fd5b60006120b684828501612003565b91505092915050565b600080604083850312156120d257600080fd5b60006120e085828601612003565b92505060206120f185828601612003565b9150509250929050565b60008060006060848603121561211057600080fd5b600061211e86828701612003565b935050602061212f86828701612003565b925050604061214086828701612081565b9150509250925092565b6000806000806080858703121561216057600080fd5b600061216e87828801612003565b945050602061217f87828801612003565b935050604061219087828801612081565b925050606085013567ffffffffffffffff8111156121ad57600080fd5b6121b987828801612057565b91505092959194509250565b600080604083850312156121d857600080fd5b60006121e685828601612003565b92505060206121f785828601612018565b9150509250929050565b6000806040838503121561221457600080fd5b600061222285828601612003565b925050602061223385828601612081565b9150509250929050565b60006020828403121561224f57600080fd5b600061225d8482850161202d565b91505092915050565b60006020828403121561227857600080fd5b600061228684828501612042565b91505092915050565b6000602082840312156122a157600080fd5b60006122af84828501612081565b91505092915050565b6122c18161322d565b82525050565b6122d08161323f565b82525050565b60006122e1826130d5565b6122eb81856130eb565b93506122fb8185602086016132b0565b6123048161344b565b840191505092915050565b600061231a826130e0565b61232481856130fc565b93506123348185602086016132b0565b61233d8161344b565b840191505092915050565b6000612353826130e0565b61235d818561310d565b935061236d8185602086016132b0565b80840191505092915050565b60008154612386816132e3565b612390818661310d565b945060018216600081146123ab57600181146123bc576123ef565b60ff198316865281860193506123ef565b6123c5856130c0565b60005b838110156123e7578154818901526001820191506020810190506123c8565b838801955050505b50505092915050565b600061240560258361310d565b91507f68747470733a2f2f6e6674707265766965772e30786465762e636f6465732f3f60008301527f636f64653d0000000000000000000000000000000000000000000000000000006020830152602582019050919050565b600061246b6032836130fc565b91507f4552433732313a207472616e7366657220746f206e6f6e20455243373231526560008301527f63656976657220696d706c656d656e74657200000000000000000000000000006020830152604082019050919050565b60006124d1601c836130fc565b91507f4552433732313a20746f6b656e20616c7265616479206d696e746564000000006000830152602082019050919050565b60006125116024836130fc565b91507f4552433732313a207472616e7366657220746f20746865207a65726f2061646460008301527f72657373000000000000000000000000000000000000000000000000000000006020830152604082019050919050565b60006125776019836130fc565b91507f4552433732313a20617070726f766520746f2063616c6c6572000000000000006000830152602082019050919050565b60006125b7602c836130fc565b91507f4552433732313a206f70657261746f7220717565727920666f72206e6f6e657860008301527f697374656e7420746f6b656e00000000000000000000000000000000000000006020830152604082019050919050565b600061261d600d8361310d565b91507f3c2f746578743e3c2f7376673e000000000000000000000000000000000000006000830152600d82019050919050565b600061265d600b8361310d565b91507f52616e646f6d20646174610000000000000000000000000000000000000000006000830152600b82019050919050565b600061269d6038836130fc565b91507f4552433732313a20617070726f76652063616c6c6572206973206e6f74206f7760008301527f6e6572206e6f7220617070726f76656420666f7220616c6c00000000000000006020830152604082019050919050565b6000612703602a836130fc565b91507f4552433732313a2062616c616e636520717565727920666f7220746865207a6560008301527f726f2061646472657373000000000000000000000000000000000000000000006020830152604082019050919050565b60006127696029836130fc565b91507f4552433732313a206f776e657220717565727920666f72206e6f6e657869737460008301527f656e7420746f6b656e00000000000000000000000000000000000000000000006020830152604082019050919050565b60006127cf602e836130fc565b91507f45524337323155524953746f726167653a2055524920736574206f66206e6f6e60008301527f6578697374656e7420746f6b656e0000000000000000000000000000000000006020830152604082019050919050565b600061283560028361310d565b91507f227d0000000000000000000000000000000000000000000000000000000000006000830152600282019050919050565b60006128756020836130fc565b91507f4552433732313a206d696e7420746f20746865207a65726f20616464726573736000830152602082019050919050565b60006128b56031836130fc565b91507f45524337323155524953746f726167653a2055524920717565727920666f722060008301527f6e6f6e6578697374656e7420746f6b656e0000000000000000000000000000006020830152604082019050919050565b600061291b602c836130fc565b91507f4552433732313a20617070726f76656420717565727920666f72206e6f6e657860008301527f697374656e7420746f6b656e00000000000000000000000000000000000000006020830152604082019050919050565b60006129816029836130fc565b91507f4552433732313a207472616e73666572206f6620746f6b656e2074686174206960008301527f73206e6f74206f776e00000000000000000000000000000000000000000000006020830152604082019050919050565b60006129e7602f836130fc565b91507f4552433732314d657461646174613a2055524920717565727920666f72206e6f60008301527f6e6578697374656e7420746f6b656e00000000000000000000000000000000006020830152604082019050919050565b6000612a4d600a8361310d565b91507f7b226e616d65223a2022000000000000000000000000000000000000000000006000830152600a82019050919050565b6000612a8d606e8361310d565b91507f222c20226465736372697074696f6e223a20224120626c616e6b20737667207360008301527f686f77696e6720612072616e646f6d20776f72642067656e657261746564206260208301527f7920757365722e222c2022696d616765223a2022646174613a696d6167652f7360408301527f76672b786d6c3b6261736536342c0000000000000000000000000000000000006060830152606e82019050919050565b6000612b3f6021836130fc565b91507f4552433732313a20617070726f76616c20746f2063757272656e74206f776e6560008301527f72000000000000000000000000000000000000000000000000000000000000006020830152604082019050919050565b6000612ba5601d8361310d565b91507f646174613a6170706c69636174696f6e2f6a736f6e3b6261736536342c0000006000830152601d82019050919050565b6000612be56031836130fc565b91507f4552433732313a207472616e736665722063616c6c6572206973206e6f74206f60008301527f776e6572206e6f7220617070726f7665640000000000000000000000000000006020830152604082019050919050565b612c4781613297565b82525050565b6000612c598284612348565b915081905092915050565b6000612c708285612348565b9150612c7c8284612348565b91508190509392505050565b6000612c948285612379565b9150612ca08284612348565b9150612cab82612610565b91508190509392505050565b6000612cc2826123f8565b9150612cce8284612348565b915081905092915050565b6000612ce482612650565b9150612cf08284612348565b915081905092915050565b6000612d0682612a40565b9150612d128285612348565b9150612d1d82612a80565b9150612d298284612348565b9150612d3482612828565b91508190509392505050565b6000612d4b82612b98565b9150612d578284612348565b915081905092915050565b6000602082019050612d7760008301846122b8565b92915050565b6000608082019050612d9260008301876122b8565b612d9f60208301866122b8565b612dac6040830185612c3e565b8181036060830152612dbe81846122d6565b905095945050505050565b6000602082019050612dde60008301846122c7565b92915050565b60006020820190508181036000830152612dfe818461230f565b905092915050565b60006060820190508181036000830152612e20818661230f565b9050612e2f6020830185612c3e565b612e3c60408301846122b8565b949350505050565b60006020820190508181036000830152612e5d8161245e565b9050919050565b60006020820190508181036000830152612e7d816124c4565b9050919050565b60006020820190508181036000830152612e9d81612504565b9050919050565b60006020820190508181036000830152612ebd8161256a565b9050919050565b60006020820190508181036000830152612edd816125aa565b9050919050565b60006020820190508181036000830152612efd81612690565b9050919050565b60006020820190508181036000830152612f1d816126f6565b9050919050565b60006020820190508181036000830152612f3d8161275c565b9050919050565b60006020820190508181036000830152612f5d816127c2565b9050919050565b60006020820190508181036000830152612f7d81612868565b9050919050565b60006020820190508181036000830152612f9d816128a8565b9050919050565b60006020820190508181036000830152612fbd8161290e565b9050919050565b60006020820190508181036000830152612fdd81612974565b9050919050565b60006020820190508181036000830152612ffd816129da565b9050919050565b6000602082019050818103600083015261301d81612b32565b9050919050565b6000602082019050818103600083015261303d81612bd8565b9050919050565b60006020820190506130596000830184612c3e565b92915050565b6000604051905081810181811067ffffffffffffffff821117156130865761308561341c565b5b8060405250919050565b600067ffffffffffffffff8211156130ab576130aa61341c565b5b601f19601f8301169050602081019050919050565b60008190508160005260206000209050919050565b600081519050919050565b600081519050919050565b600082825260208201905092915050565b600082825260208201905092915050565b600081905092915050565b600061312382613297565b915061312e83613297565b9250827fffffffffffffffffffffffffffffffffffffffffffffffffffffffffffffffff038211156131635761316261338f565b5b828201905092915050565b600061317982613297565b915061318483613297565b925082613194576131936133be565b5b828204905092915050565b60006131aa82613297565b91506131b583613297565b9250817fffffffffffffffffffffffffffffffffffffffffffffffffffffffffffffffff04831182151516156131ee576131ed61338f565b5b828202905092915050565b600061320482613297565b915061320f83613297565b9250828210156132225761322161338f565b5b828203905092915050565b600061323882613277565b9050919050565b60008115159050919050565b60007fffffffff0000000000000000000000000000000000000000000000000000000082169050919050565b600073ffffffffffffffffffffffffffffffffffffffff82169050919050565b6000819050919050565b82818337600083830152505050565b60005b838110156132ce5780820151818401526020810190506132b3565b838111156132dd576000848401525b50505050565b600060028204905060018216806132fb57607f821691505b6020821081141561330f5761330e6133ed565b5b50919050565b600061332082613297565b91507fffffffffffffffffffffffffffffffffffffffffffffffffffffffffffffffff8214156133535761335261338f565b5b600182019050919050565b600061336982613297565b915061337483613297565b925082613384576133836133be565b5b828206905092915050565b7f4e487b7100000000000000000000000000000000000000000000000000000000600052601160045260246000fd5b7f4e487b7100000000000000000000000000000000000000000000000000000000600052601260045260246000fd5b7f4e487b7100000000000000000000000000000000000000000000000000000000600052602260045260246000fd5b7f4e487b7100000000000000000000000000000000000000000000000000000000600052604160045260246000fd5b6000601f19601f8301169050919050565b6134658161322d565b811461347057600080fd5b50565b61347c8161323f565b811461348757600080fd5b50565b6134938161324b565b811461349e57600080fd5b50565b6134aa81613297565b81146134b557600080fd5b5056fe4142434445464748494a4b4c4d4e4f505152535455565758595a6162636465666768696a6b6c6d6e6f707172737475767778797a303132333435363738392b2fa2646970667358221220f6b4c2679e9f7008dafb7df6b0813b536f9fbd4fb682a6958f4186c88a84f22064736f6c634300080000333c73766720786d6c6e733d27687474703a2f2f7777772e77332e6f72672f323030302f73766727207072657365727665417370656374526174696f3d27784d696e594d696e206d656574272076696577426f783d273020302033353020333530273e3c7374796c653e2e62617365207b2066696c6c3a2077686974653b20666f6e742d66616d696c793a2073657269663b20666f6e742d73697a653a20323470783b207d3c2f7374796c653e3c726563742077696474683d273130302527206865696768743d2731303025272066696c6c3d27626c61636b27202f3e3c7465787420783d273530252720793d273530252720636c6173733d27626173652720646f6d696e616e742d626173656c696e653d276d6964646c652720746578742d616e63686f723d276d6964646c65273e",
  "linkReferences": {},
  "deployedLinkReferences": {}
}